{
    "_format": "hh-sol-artifact-1",
    "contractName": "MyEpicNFT",
    "sourceName": "contracts/MyEpicNFT.sol",
    "abi": [
        {
            "inputs": [],
            "stateMutability": "nonpayable",
            "type": "constructor"
        },
        {
            "anonymous": false,
            "inputs": [
                {
                    "indexed": true,
                    "internalType": "address",
                    "name": "owner",
                    "type": "address"
                },
                {
                    "indexed": true,
                    "internalType": "address",
                    "name": "approved",
                    "type": "address"
                },
                {
                    "indexed": true,
                    "internalType": "uint256",
                    "name": "tokenId",
                    "type": "uint256"
                }
            ],
            "name": "Approval",
            "type": "event"
        },
        {
            "anonymous": false,
            "inputs": [
                {
                    "indexed": true,
                    "internalType": "address",
                    "name": "owner",
                    "type": "address"
                },
                {
                    "indexed": true,
                    "internalType": "address",
                    "name": "operator",
                    "type": "address"
                },
                {
                    "indexed": false,
                    "internalType": "bool",
                    "name": "approved",
                    "type": "bool"
                }
            ],
            "name": "ApprovalForAll",
            "type": "event"
        },
        {
            "anonymous": false,
            "inputs": [
                {
                    "indexed": true,
                    "internalType": "address",
                    "name": "from",
                    "type": "address"
                },
                {
                    "indexed": true,
                    "internalType": "address",
                    "name": "to",
                    "type": "address"
                },
                {
                    "indexed": true,
                    "internalType": "uint256",
                    "name": "tokenId",
                    "type": "uint256"
                }
            ],
            "name": "Transfer",
            "type": "event"
        },
        {
            "inputs": [
                {
                    "internalType": "address",
                    "name": "to",
                    "type": "address"
                },
                {
                    "internalType": "uint256",
                    "name": "tokenId",
                    "type": "uint256"
                }
            ],
            "name": "approve",
            "outputs": [],
            "stateMutability": "nonpayable",
            "type": "function"
        },
        {
            "inputs": [
                {
                    "internalType": "address",
                    "name": "owner",
                    "type": "address"
                }
            ],
            "name": "balanceOf",
            "outputs": [
                {
                    "internalType": "uint256",
                    "name": "",
                    "type": "uint256"
                }
            ],
            "stateMutability": "view",
            "type": "function"
        },
        {
            "inputs": [
                {
                    "internalType": "uint256",
                    "name": "tokenId",
                    "type": "uint256"
                }
            ],
            "name": "getApproved",
            "outputs": [
                {
                    "internalType": "address",
                    "name": "",
                    "type": "address"
                }
            ],
            "stateMutability": "view",
            "type": "function"
        },
        {
            "inputs": [
                {
                    "internalType": "address",
                    "name": "owner",
                    "type": "address"
                },
                {
                    "internalType": "address",
                    "name": "operator",
                    "type": "address"
                }
            ],
            "name": "isApprovedForAll",
            "outputs": [
                {
                    "internalType": "bool",
                    "name": "",
                    "type": "bool"
                }
            ],
            "stateMutability": "view",
            "type": "function"
        },
        {
            "inputs": [],
            "name": "makeAnEpicNFT",
            "outputs": [],
            "stateMutability": "nonpayable",
            "type": "function"
        },
        {
            "inputs": [],
            "name": "name",
            "outputs": [
                {
                    "internalType": "string",
                    "name": "",
                    "type": "string"
                }
            ],
            "stateMutability": "view",
            "type": "function"
        },
        {
            "inputs": [
                {
                    "internalType": "uint256",
                    "name": "tokenId",
                    "type": "uint256"
                }
            ],
            "name": "ownerOf",
            "outputs": [
                {
                    "internalType": "address",
                    "name": "",
                    "type": "address"
                }
            ],
            "stateMutability": "view",
            "type": "function"
        },
        {
            "inputs": [
                {
                    "internalType": "address",
                    "name": "from",
                    "type": "address"
                },
                {
                    "internalType": "address",
                    "name": "to",
                    "type": "address"
                },
                {
                    "internalType": "uint256",
                    "name": "tokenId",
                    "type": "uint256"
                }
            ],
            "name": "safeTransferFrom",
            "outputs": [],
            "stateMutability": "nonpayable",
            "type": "function"
        },
        {
            "inputs": [
                {
                    "internalType": "address",
                    "name": "from",
                    "type": "address"
                },
                {
                    "internalType": "address",
                    "name": "to",
                    "type": "address"
                },
                {
                    "internalType": "uint256",
                    "name": "tokenId",
                    "type": "uint256"
                },
                {
                    "internalType": "bytes",
                    "name": "_data",
                    "type": "bytes"
                }
            ],
            "name": "safeTransferFrom",
            "outputs": [],
            "stateMutability": "nonpayable",
            "type": "function"
        },
        {
            "inputs": [
                {
                    "internalType": "address",
                    "name": "operator",
                    "type": "address"
                },
                {
                    "internalType": "bool",
                    "name": "approved",
                    "type": "bool"
                }
            ],
            "name": "setApprovalForAll",
            "outputs": [],
            "stateMutability": "nonpayable",
            "type": "function"
        },
        {
            "inputs": [
                {
                    "internalType": "bytes4",
                    "name": "interfaceId",
                    "type": "bytes4"
                }
            ],
            "name": "supportsInterface",
            "outputs": [
                {
                    "internalType": "bool",
                    "name": "",
                    "type": "bool"
                }
            ],
            "stateMutability": "view",
            "type": "function"
        },
        {
            "inputs": [],
            "name": "symbol",
            "outputs": [
                {
                    "internalType": "string",
                    "name": "",
                    "type": "string"
                }
            ],
            "stateMutability": "view",
            "type": "function"
        },
        {
            "inputs": [
                {
                    "internalType": "uint256",
                    "name": "tokenId",
                    "type": "uint256"
                }
            ],
            "name": "tokenURI",
            "outputs": [
                {
                    "internalType": "string",
                    "name": "",
                    "type": "string"
                }
            ],
            "stateMutability": "view",
            "type": "function"
        },
        {
            "inputs": [
                {
                    "internalType": "address",
                    "name": "from",
                    "type": "address"
                },
                {
                    "internalType": "address",
                    "name": "to",
                    "type": "address"
                },
                {
                    "internalType": "uint256",
                    "name": "tokenId",
                    "type": "uint256"
                }
            ],
            "name": "transferFrom",
            "outputs": [],
            "stateMutability": "nonpayable",
            "type": "function"
        }
    ],
    "bytecode": "0x608060405260405180610160016040528061012f815260200162003d3861012f913960089080519060200190620000389291906200067e565b506040518060c001604052806040518060400160405280600681526020017f5370756e6b79000000000000000000000000000000000000000000000000000081525081526020016040518060400160405280600981526020017f4675726f63696f7573000000000000000000000000000000000000000000000081525081526020016040518060400160405280600581526020017f556d70747900000000000000000000000000000000000000000000000000000081525081526020016040518060400160405280600b81526020017f43726166746163696f757300000000000000000000000000000000000000000081525081526020016040518060400160405280600981526020017f4167696c6174696e67000000000000000000000000000000000000000000000081525081526020016040518060400160405280600981526020017f5377756e646c696e6700000000000000000000000000000000000000000000008152508152506009906006620001b69291906200070f565b506040518060c001604052806040518060400160405280600781526020017f4c69746963616e0000000000000000000000000000000000000000000000000081525081526020016040518060400160405280600881526020017f4d7561726974616e00000000000000000000000000000000000000000000000081525081526020016040518060400160405280600881526020017f4a6171756977616e00000000000000000000000000000000000000000000000081525081526020016040518060400160405280600881526020017f506572756d69616e00000000000000000000000000000000000000000000000081525081526020016040518060400160405280600681526020017f416c7069616e000000000000000000000000000000000000000000000000000081525081526020016040518060400160405280600981526020017f50696b6172656573650000000000000000000000000000000000000000000000815250815250600a906006620003349291906200070f565b506040518060c001604052806040518060400160405280600881526020017f476f72616e6b657900000000000000000000000000000000000000000000000081525081526020016040518060400160405280600781526020017f5368617270756e0000000000000000000000000000000000000000000000000081525081526020016040518060400160405280600581526020017f566974657200000000000000000000000000000000000000000000000000000081525081526020016040518060400160405280600681526020017f4d6f6e6b6f77000000000000000000000000000000000000000000000000000081525081526020016040518060400160405280600881526020017f54616772696c6c6100000000000000000000000000000000000000000000000081525081526020016040518060400160405280600681526020017f426f6c6f6f6e0000000000000000000000000000000000000000000000000000815250815250600b906006620004b29291906200070f565b50348015620004c057600080fd5b506040518060400160405280600a81526020017f416e6f6d69616c4e4654000000000000000000000000000000000000000000008152506040518060400160405280600681526020017f53515541524500000000000000000000000000000000000000000000000000008152508160009080519060200190620005459291906200067e565b5080600190805190602001906200055e9291906200067e565b505050620005ac6040518060400160405280601e81526020017f54686973206973206d79204e465420636f6e74726163742e20576f6168210000815250620005b260201b62000ca41760201c565b62000930565b6200065281604051602401620005c9919062000844565b6040516020818303038152906040527f41304fac000000000000000000000000000000000000000000000000000000007bffffffffffffffffffffffffffffffffffffffffffffffffffffffff19166020820180517bffffffffffffffffffffffffffffffffffffffffffffffffffffffff83818316178352505050506200065560201b60201c565b50565b60008151905060006a636f6e736f6c652e6c6f679050602083016000808483855afa5050505050565b8280546200068c90620008ba565b90600052602060002090601f016020900481019282620006b05760008555620006fc565b82601f10620006cb57805160ff1916838001178555620006fc565b82800160010185558215620006fc579182015b82811115620006fb578251825591602001919060010190620006de565b5b5090506200070b919062000776565b5090565b82805482825590600052602060002090810192821562000763579160200282015b8281111562000762578251829080519060200190620007519291906200067e565b509160200191906001019062000730565b5b50905062000772919062000795565b5090565b5b808211156200079157600081600090555060010162000777565b5090565b5b80821115620007b95760008181620007af9190620007bd565b5060010162000796565b5090565b508054620007cb90620008ba565b6000825580601f10620007df575062000800565b601f016020900490600052602060002090810190620007ff919062000776565b5b50565b6000620008108262000868565b6200081c818562000873565b93506200082e81856020860162000884565b62000839816200091f565b840191505092915050565b6000602082019050818103600083015262000860818462000803565b905092915050565b600081519050919050565b600082825260208201905092915050565b60005b83811015620008a457808201518184015260208101905062000887565b83811115620008b4576000848401525b50505050565b60006002820490506001821680620008d357607f821691505b60208210811415620008ea57620008e9620008f0565b5b50919050565b7f4e487b7100000000000000000000000000000000000000000000000000000000600052602260045260246000fd5b6000601f19601f8301169050919050565b6133f880620009406000396000f3fe608060405234801561001057600080fd5b50600436106100ea5760003560e01c806370a082311161008c578063b88d4fde11610066578063b88d4fde1461025b578063c87b56dd14610277578063de9d132f146102a7578063e985e9c5146102b1576100ea565b806370a08231146101f157806395d89b4114610221578063a22cb4651461023f576100ea565b8063095ea7b3116100c8578063095ea7b31461016d57806323b872dd1461018957806342842e0e146101a55780636352211e146101c1576100ea565b806301ffc9a7146100ef57806306fdde031461011f578063081812fc1461013d575b600080fd5b61010960048036038101906101049190611d46565b6102e1565b604051610116919061214c565b60405180910390f35b6101276103c3565b6040516101349190612167565b60405180910390f35b61015760048036038101906101529190611d98565b610455565b60405161016491906120e5565b60405180910390f35b61018760048036038101906101829190611d0a565b6104da565b005b6101a3600480360381019061019e9190611c04565b6105f2565b005b6101bf60048036038101906101ba9190611c04565b610652565b005b6101db60048036038101906101d69190611d98565b610672565b6040516101e891906120e5565b60405180910390f35b61020b60048036038101906102069190611b9f565b610724565b60405161021891906123c7565b60405180910390f35b6102296107dc565b6040516102369190612167565b60405180910390f35b61025960048036038101906102549190611cce565b61086e565b005b61027560048036038101906102709190611c53565b6109ef565b005b610291600480360381019061028c9190611d98565b610a51565b60405161029e9190612167565b60405180910390f35b6102af610ba3565b005b6102cb60048036038101906102c69190611bc8565b610c10565b6040516102d8919061214c565b60405180910390f35b60007f80ac58cd000000000000000000000000000000000000000000000000000000007bffffffffffffffffffffffffffffffffffffffffffffffffffffffff1916827bffffffffffffffffffffffffffffffffffffffffffffffffffffffff191614806103ac57507f5b5e139f000000000000000000000000000000000000000000000000000000007bffffffffffffffffffffffffffffffffffffffffffffffffffffffff1916827bffffffffffffffffffffffffffffffffffffffffffffffffffffffff1916145b806103bc57506103bb82610d3d565b5b9050919050565b6060600080546103d2906125ec565b80601f01602080910402602001604051908101604052809291908181526020018280546103fe906125ec565b801561044b5780601f106104205761010080835404028352916020019161044b565b820191906000526020600020905b81548152906001019060200180831161042e57829003601f168201915b5050505050905090565b600061046082610da7565b61049f576040517f08c379a000000000000000000000000000000000000000000000000000000000815260040161049690612327565b60405180910390fd5b6004600083815260200190815260200160002060009054906101000a900473ffffffffffffffffffffffffffffffffffffffff169050919050565b60006104e582610672565b90508073ffffffffffffffffffffffffffffffffffffffff168373ffffffffffffffffffffffffffffffffffffffff161415610556576040517f08c379a000000000000000000000000000000000000000000000000000000000815260040161054d90612387565b60405180910390fd5b8073ffffffffffffffffffffffffffffffffffffffff16610575610e13565b73ffffffffffffffffffffffffffffffffffffffff1614806105a457506105a38161059e610e13565b610c10565b5b6105e3576040517f08c379a00000000000000000000000000000000000000000000000000000000081526004016105da90612267565b60405180910390fd5b6105ed8383610e1b565b505050565b6106036105fd610e13565b82610ed4565b610642576040517f08c379a0000000000000000000000000000000000000000000000000000000008152600401610639906123a7565b60405180910390fd5b61064d838383610fb2565b505050565b61066d838383604051806020016040528060008152506109ef565b505050565b6000806002600084815260200190815260200160002060009054906101000a900473ffffffffffffffffffffffffffffffffffffffff169050600073ffffffffffffffffffffffffffffffffffffffff168173ffffffffffffffffffffffffffffffffffffffff16141561071b576040517f08c379a0000000000000000000000000000000000000000000000000000000008152600401610712906122a7565b60405180910390fd5b80915050919050565b60008073ffffffffffffffffffffffffffffffffffffffff168273ffffffffffffffffffffffffffffffffffffffff161415610795576040517f08c379a000000000000000000000000000000000000000000000000000000000815260040161078c90612287565b60405180910390fd5b600360008373ffffffffffffffffffffffffffffffffffffffff1673ffffffffffffffffffffffffffffffffffffffff168152602001908152602001600020549050919050565b6060600180546107eb906125ec565b80601f0160208091040260200160405190810160405280929190818152602001828054610817906125ec565b80156108645780601f1061083957610100808354040283529160200191610864565b820191906000526020600020905b81548152906001019060200180831161084757829003601f168201915b5050505050905090565b610876610e13565b73ffffffffffffffffffffffffffffffffffffffff168273ffffffffffffffffffffffffffffffffffffffff1614156108e4576040517f08c379a00000000000000000000000000000000000000000000000000000000081526004016108db90612227565b60405180910390fd5b80600560006108f1610e13565b73ffffffffffffffffffffffffffffffffffffffff1673ffffffffffffffffffffffffffffffffffffffff16815260200190815260200160002060008473ffffffffffffffffffffffffffffffffffffffff1673ffffffffffffffffffffffffffffffffffffffff16815260200190815260200160002060006101000a81548160ff0219169083151502179055508173ffffffffffffffffffffffffffffffffffffffff1661099e610e13565b73ffffffffffffffffffffffffffffffffffffffff167f17307eab39ab6107e8899845ad3d59bd9653f200f220920489ca2b5937696c31836040516109e3919061214c565b60405180910390a35050565b610a006109fa610e13565b83610ed4565b610a3f576040517f08c379a0000000000000000000000000000000000000000000000000000000008152600401610a36906123a7565b60405180910390fd5b610a4b8484848461120e565b50505050565b6060610a5c82610da7565b610a9b576040517f08c379a0000000000000000000000000000000000000000000000000000000008152600401610a9290612307565b60405180910390fd5b6000600660008481526020019081526020016000208054610abb906125ec565b80601f0160208091040260200160405190810160405280929190818152602001828054610ae7906125ec565b8015610b345780601f10610b0957610100808354040283529160200191610b34565b820191906000526020600020905b815481529060010190602001808311610b1757829003601f168201915b505050505090506000610b4561126a565b9050600081511415610b5b578192505050610b9e565b600082511115610b90578082604051602001610b789291906120c1565b60405160208183030381529060405292505050610b9e565b610b9984611281565b925050505b919050565b6000610baf6007611328565b9050610bbb3382611336565b610be08160405180610760016040528061072d8152602001612c9661072d9139611354565b610c03604051806060016040528060258152602001612c716025913982336113c8565b610c0d6007611467565b50565b6000600560008473ffffffffffffffffffffffffffffffffffffffff1673ffffffffffffffffffffffffffffffffffffffff16815260200190815260200160002060008373ffffffffffffffffffffffffffffffffffffffff1673ffffffffffffffffffffffffffffffffffffffff16815260200190815260200160002060009054906101000a900460ff16905092915050565b610d3a81604051602401610cb89190612167565b6040516020818303038152906040527f41304fac000000000000000000000000000000000000000000000000000000007bffffffffffffffffffffffffffffffffffffffffffffffffffffffff19166020820180517bffffffffffffffffffffffffffffffffffffffffffffffffffffffff838183161783525050505061147d565b50565b60007f01ffc9a7000000000000000000000000000000000000000000000000000000007bffffffffffffffffffffffffffffffffffffffffffffffffffffffff1916827bffffffffffffffffffffffffffffffffffffffffffffffffffffffff1916149050919050565b60008073ffffffffffffffffffffffffffffffffffffffff166002600084815260200190815260200160002060009054906101000a900473ffffffffffffffffffffffffffffffffffffffff1673ffffffffffffffffffffffffffffffffffffffff1614159050919050565b600033905090565b816004600083815260200190815260200160002060006101000a81548173ffffffffffffffffffffffffffffffffffffffff021916908373ffffffffffffffffffffffffffffffffffffffff160217905550808273ffffffffffffffffffffffffffffffffffffffff16610e8e83610672565b73ffffffffffffffffffffffffffffffffffffffff167f8c5be1e5ebec7d5bd14f71427d1e84f3dd0314c0f7b2291e5b200ac8c7c3b92560405160405180910390a45050565b6000610edf82610da7565b610f1e576040517f08c379a0000000000000000000000000000000000000000000000000000000008152600401610f1590612247565b60405180910390fd5b6000610f2983610672565b90508073ffffffffffffffffffffffffffffffffffffffff168473ffffffffffffffffffffffffffffffffffffffff161480610f9857508373ffffffffffffffffffffffffffffffffffffffff16610f8084610455565b73ffffffffffffffffffffffffffffffffffffffff16145b80610fa95750610fa88185610c10565b5b91505092915050565b8273ffffffffffffffffffffffffffffffffffffffff16610fd282610672565b73ffffffffffffffffffffffffffffffffffffffff1614611028576040517f08c379a000000000000000000000000000000000000000000000000000000000815260040161101f90612347565b60405180910390fd5b600073ffffffffffffffffffffffffffffffffffffffff168273ffffffffffffffffffffffffffffffffffffffff161415611098576040517f08c379a000000000000000000000000000000000000000000000000000000000815260040161108f90612207565b60405180910390fd5b6110a38383836114a6565b6110ae600082610e1b565b6001600360008573ffffffffffffffffffffffffffffffffffffffff1673ffffffffffffffffffffffffffffffffffffffff16815260200190815260200160002060008282546110fe9190612502565b925050819055506001600360008473ffffffffffffffffffffffffffffffffffffffff1673ffffffffffffffffffffffffffffffffffffffff1681526020019081526020016000206000828254611155919061247b565b92505081905550816002600083815260200190815260200160002060006101000a81548173ffffffffffffffffffffffffffffffffffffffff021916908373ffffffffffffffffffffffffffffffffffffffff160217905550808273ffffffffffffffffffffffffffffffffffffffff168473ffffffffffffffffffffffffffffffffffffffff167fddf252ad1be2c89b69c2b068fc378daa952ba7f163c4a11628f55a4df523b3ef60405160405180910390a4505050565b611219848484610fb2565b611225848484846114ab565b611264576040517f08c379a000000000000000000000000000000000000000000000000000000000815260040161125b906121c7565b60405180910390fd5b50505050565b606060405180602001604052806000815250905090565b606061128c82610da7565b6112cb576040517f08c379a00000000000000000000000000000000000000000000000000000000081526004016112c290612367565b60405180910390fd5b60006112d561126a565b905060008151116112f55760405180602001604052806000815250611320565b806112ff84611642565b6040516020016113109291906120c1565b6040516020818303038152906040525b915050919050565b600081600001549050919050565b6113508282604051806020016040528060008152506117ef565b5050565b61135d82610da7565b61139c576040517f08c379a0000000000000000000000000000000000000000000000000000000008152600401611393906122c7565b60405180910390fd5b806006600084815260200190815260200160002090805190602001906113c3929190611a2b565b505050565b6114628383836040516024016113e093929190612189565b6040516020818303038152906040527fe3849f79000000000000000000000000000000000000000000000000000000007bffffffffffffffffffffffffffffffffffffffffffffffffffffffff19166020820180517bffffffffffffffffffffffffffffffffffffffffffffffffffffffff838183161783525050505061147d565b505050565b6001816000016000828254019250508190555050565b60008151905060006a636f6e736f6c652e6c6f679050602083016000808483855afa5050505050565b505050565b60006114cc8473ffffffffffffffffffffffffffffffffffffffff1661184a565b15611635578373ffffffffffffffffffffffffffffffffffffffff1663150b7a026114f5610e13565b8786866040518563ffffffff1660e01b81526004016115179493929190612100565b602060405180830381600087803b15801561153157600080fd5b505af192505050801561156257506040513d601f19601f8201168201806040525081019061155f9190611d6f565b60015b6115e5573d8060008114611592576040519150601f19603f3d011682016040523d82523d6000602084013e611597565b606091505b506000815114156115dd576040517f08c379a00000000000000000000000000000000000000000000000000000000081526004016115d4906121c7565b60405180910390fd5b805181602001fd5b63150b7a0260e01b7bffffffffffffffffffffffffffffffffffffffffffffffffffffffff1916817bffffffffffffffffffffffffffffffffffffffffffffffffffffffff19161491505061163a565b600190505b949350505050565b6060600082141561168a576040518060400160405280600181526020017f300000000000000000000000000000000000000000000000000000000000000081525090506117ea565b600082905060005b600082146116bc5780806116a59061264f565b915050600a826116b591906124d1565b9150611692565b60008167ffffffffffffffff8111156116fe577f4e487b7100000000000000000000000000000000000000000000000000000000600052604160045260246000fd5b6040519080825280601f01601f1916602001820160405280156117305781602001600182028036833780820191505090505b5090505b600085146117e3576001826117499190612502565b9150600a856117589190612698565b6030611764919061247b565b60f81b8183815181106117a0577f4e487b7100000000000000000000000000000000000000000000000000000000600052603260045260246000fd5b60200101907effffffffffffffffffffffffffffffffffffffffffffffffffffffffffffff1916908160001a905350600a856117dc91906124d1565b9450611734565b8093505050505b919050565b6117f9838361185d565b61180660008484846114ab565b611845576040517f08c379a000000000000000000000000000000000000000000000000000000000815260040161183c906121c7565b60405180910390fd5b505050565b600080823b905060008111915050919050565b600073ffffffffffffffffffffffffffffffffffffffff168273ffffffffffffffffffffffffffffffffffffffff1614156118cd576040517f08c379a00000000000000000000000000000000000000000000000000000000081526004016118c4906122e7565b60405180910390fd5b6118d681610da7565b15611916576040517f08c379a000000000000000000000000000000000000000000000000000000000815260040161190d906121e7565b60405180910390fd5b611922600083836114a6565b6001600360008473ffffffffffffffffffffffffffffffffffffffff1673ffffffffffffffffffffffffffffffffffffffff1681526020019081526020016000206000828254611972919061247b565b92505081905550816002600083815260200190815260200160002060006101000a81548173ffffffffffffffffffffffffffffffffffffffff021916908373ffffffffffffffffffffffffffffffffffffffff160217905550808273ffffffffffffffffffffffffffffffffffffffff16600073ffffffffffffffffffffffffffffffffffffffff167fddf252ad1be2c89b69c2b068fc378daa952ba7f163c4a11628f55a4df523b3ef60405160405180910390a45050565b828054611a37906125ec565b90600052602060002090601f016020900481019282611a595760008555611aa0565b82601f10611a7257805160ff1916838001178555611aa0565b82800160010185558215611aa0579182015b82811115611a9f578251825591602001919060010190611a84565b5b509050611aad9190611ab1565b5090565b5b80821115611aca576000816000905550600101611ab2565b5090565b6000611ae1611adc84612407565b6123e2565b905082815260208101848484011115611af957600080fd5b611b048482856125aa565b509392505050565b600081359050611b1b81612c14565b92915050565b600081359050611b3081612c2b565b92915050565b600081359050611b4581612c42565b92915050565b600081519050611b5a81612c42565b92915050565b600082601f830112611b7157600080fd5b8135611b81848260208601611ace565b91505092915050565b600081359050611b9981612c59565b92915050565b600060208284031215611bb157600080fd5b6000611bbf84828501611b0c565b91505092915050565b60008060408385031215611bdb57600080fd5b6000611be985828601611b0c565b9250506020611bfa85828601611b0c565b9150509250929050565b600080600060608486031215611c1957600080fd5b6000611c2786828701611b0c565b9350506020611c3886828701611b0c565b9250506040611c4986828701611b8a565b9150509250925092565b60008060008060808587031215611c6957600080fd5b6000611c7787828801611b0c565b9450506020611c8887828801611b0c565b9350506040611c9987828801611b8a565b925050606085013567ffffffffffffffff811115611cb657600080fd5b611cc287828801611b60565b91505092959194509250565b60008060408385031215611ce157600080fd5b6000611cef85828601611b0c565b9250506020611d0085828601611b21565b9150509250929050565b60008060408385031215611d1d57600080fd5b6000611d2b85828601611b0c565b9250506020611d3c85828601611b8a565b9150509250929050565b600060208284031215611d5857600080fd5b6000611d6684828501611b36565b91505092915050565b600060208284031215611d8157600080fd5b6000611d8f84828501611b4b565b91505092915050565b600060208284031215611daa57600080fd5b6000611db884828501611b8a565b91505092915050565b611dca81612536565b82525050565b611dd981612548565b82525050565b6000611dea82612438565b611df4818561244e565b9350611e048185602086016125b9565b611e0d81612785565b840191505092915050565b6000611e2382612443565b611e2d818561245f565b9350611e3d8185602086016125b9565b611e4681612785565b840191505092915050565b6000611e5c82612443565b611e668185612470565b9350611e768185602086016125b9565b80840191505092915050565b6000611e8f60328361245f565b9150611e9a82612796565b604082019050919050565b6000611eb2601c8361245f565b9150611ebd826127e5565b602082019050919050565b6000611ed560248361245f565b9150611ee08261280e565b604082019050919050565b6000611ef860198361245f565b9150611f038261285d565b602082019050919050565b6000611f1b602c8361245f565b9150611f2682612886565b604082019050919050565b6000611f3e60388361245f565b9150611f49826128d5565b604082019050919050565b6000611f61602a8361245f565b9150611f6c82612924565b604082019050919050565b6000611f8460298361245f565b9150611f8f82612973565b604082019050919050565b6000611fa7602e8361245f565b9150611fb2826129c2565b604082019050919050565b6000611fca60208361245f565b9150611fd582612a11565b602082019050919050565b6000611fed60318361245f565b9150611ff882612a3a565b604082019050919050565b6000612010602c8361245f565b915061201b82612a89565b604082019050919050565b600061203360298361245f565b915061203e82612ad8565b604082019050919050565b6000612056602f8361245f565b915061206182612b27565b604082019050919050565b600061207960218361245f565b915061208482612b76565b604082019050919050565b600061209c60318361245f565b91506120a782612bc5565b604082019050919050565b6120bb816125a0565b82525050565b60006120cd8285611e51565b91506120d98284611e51565b91508190509392505050565b60006020820190506120fa6000830184611dc1565b92915050565b60006080820190506121156000830187611dc1565b6121226020830186611dc1565b61212f60408301856120b2565b81810360608301526121418184611ddf565b905095945050505050565b60006020820190506121616000830184611dd0565b92915050565b600060208201905081810360008301526121818184611e18565b905092915050565b600060608201905081810360008301526121a38186611e18565b90506121b260208301856120b2565b6121bf6040830184611dc1565b949350505050565b600060208201905081810360008301526121e081611e82565b9050919050565b6000602082019050818103600083015261220081611ea5565b9050919050565b6000602082019050818103600083015261222081611ec8565b9050919050565b6000602082019050818103600083015261224081611eeb565b9050919050565b6000602082019050818103600083015261226081611f0e565b9050919050565b6000602082019050818103600083015261228081611f31565b9050919050565b600060208201905081810360008301526122a081611f54565b9050919050565b600060208201905081810360008301526122c081611f77565b9050919050565b600060208201905081810360008301526122e081611f9a565b9050919050565b6000602082019050818103600083015261230081611fbd565b9050919050565b6000602082019050818103600083015261232081611fe0565b9050919050565b6000602082019050818103600083015261234081612003565b9050919050565b6000602082019050818103600083015261236081612026565b9050919050565b6000602082019050818103600083015261238081612049565b9050919050565b600060208201905081810360008301526123a08161206c565b9050919050565b600060208201905081810360008301526123c08161208f565b9050919050565b60006020820190506123dc60008301846120b2565b92915050565b60006123ec6123fd565b90506123f8828261261e565b919050565b6000604051905090565b600067ffffffffffffffff82111561242257612421612756565b5b61242b82612785565b9050602081019050919050565b600081519050919050565b600081519050919050565b600082825260208201905092915050565b600082825260208201905092915050565b600081905092915050565b6000612486826125a0565b9150612491836125a0565b9250827fffffffffffffffffffffffffffffffffffffffffffffffffffffffffffffffff038211156124c6576124c56126c9565b5b828201905092915050565b60006124dc826125a0565b91506124e7836125a0565b9250826124f7576124f66126f8565b5b828204905092915050565b600061250d826125a0565b9150612518836125a0565b92508282101561252b5761252a6126c9565b5b828203905092915050565b600061254182612580565b9050919050565b60008115159050919050565b60007fffffffff0000000000000000000000000000000000000000000000000000000082169050919050565b600073ffffffffffffffffffffffffffffffffffffffff82169050919050565b6000819050919050565b82818337600083830152505050565b60005b838110156125d75780820151818401526020810190506125bc565b838111156125e6576000848401525b50505050565b6000600282049050600182168061260457607f821691505b6020821081141561261857612617612727565b5b50919050565b61262782612785565b810181811067ffffffffffffffff8211171561264657612645612756565b5b80604052505050565b600061265a826125a0565b91507fffffffffffffffffffffffffffffffffffffffffffffffffffffffffffffffff82141561268d5761268c6126c9565b5b600182019050919050565b60006126a3826125a0565b91506126ae836125a0565b9250826126be576126bd6126f8565b5b828206905092915050565b7f4e487b7100000000000000000000000000000000000000000000000000000000600052601160045260246000fd5b7f4e487b7100000000000000000000000000000000000000000000000000000000600052601260045260246000fd5b7f4e487b7100000000000000000000000000000000000000000000000000000000600052602260045260246000fd5b7f4e487b7100000000000000000000000000000000000000000000000000000000600052604160045260246000fd5b6000601f19601f8301169050919050565b7f4552433732313a207472616e7366657220746f206e6f6e20455243373231526560008201527f63656976657220696d706c656d656e7465720000000000000000000000000000602082015250565b7f4552433732313a20746f6b656e20616c7265616479206d696e74656400000000600082015250565b7f4552433732313a207472616e7366657220746f20746865207a65726f2061646460008201527f7265737300000000000000000000000000000000000000000000000000000000602082015250565b7f4552433732313a20617070726f766520746f2063616c6c657200000000000000600082015250565b7f4552433732313a206f70657261746f7220717565727920666f72206e6f6e657860008201527f697374656e7420746f6b656e0000000000000000000000000000000000000000602082015250565b7f4552433732313a20617070726f76652063616c6c6572206973206e6f74206f7760008201527f6e6572206e6f7220617070726f76656420666f7220616c6c0000000000000000602082015250565b7f4552433732313a2062616c616e636520717565727920666f7220746865207a6560008201527f726f206164647265737300000000000000000000000000000000000000000000602082015250565b7f4552433732313a206f776e657220717565727920666f72206e6f6e657869737460008201527f656e7420746f6b656e0000000000000000000000000000000000000000000000602082015250565b7f45524337323155524953746f726167653a2055524920736574206f66206e6f6e60008201527f6578697374656e7420746f6b656e000000000000000000000000000000000000602082015250565b7f4552433732313a206d696e7420746f20746865207a65726f2061646472657373600082015250565b7f45524337323155524953746f726167653a2055524920717565727920666f722060008201527f6e6f6e6578697374656e7420746f6b656e000000000000000000000000000000602082015250565b7f4552433732313a20617070726f76656420717565727920666f72206e6f6e657860008201527f697374656e7420746f6b656e0000000000000000000000000000000000000000602082015250565b7f4552433732313a207472616e73666572206f6620746f6b656e2074686174206960008201527f73206e6f74206f776e0000000000000000000000000000000000000000000000602082015250565b7f4552433732314d657461646174613a2055524920717565727920666f72206e6f60008201527f6e6578697374656e7420746f6b656e0000000000000000000000000000000000602082015250565b7f4552433732313a20617070726f76616c20746f2063757272656e74206f776e6560008201527f7200000000000000000000000000000000000000000000000000000000000000602082015250565b7f4552433732313a207472616e736665722063616c6c6572206973206e6f74206f60008201527f776e6572206e6f7220617070726f766564000000000000000000000000000000602082015250565b612c1d81612536565b8114612c2857600080fd5b50565b612c3481612548565b8114612c3f57600080fd5b50565b612c4b81612554565b8114612c5657600080fd5b50565b612c62816125a0565b8114612c6d57600080fd5b5056fe416e204e465420772f20494420257320686173206265656e206d696e74656420746f202573646174613a6170706c69636174696f6e2f6a736f6e3b6261736536342c65776f6749434a755957316c496a6f674969497343694167496d526c63324e796158423061573975496a6f674969497343694167496d6c745957646c496a6f67496d526864474536615731685a32557663335a6e4b3368746244746959584e6c4e6a51735545684f4d6c7035516e426152444270597a4e6a644746755458525a6258683257576b78656d527459326c4a53467077576c686b5132497a5a7a6c4a616b466e54554e42654531455157644e5645463353576c434e474a586548566a656a4270595568534d474e4562335a4d4d32517a5a486b314d3031354e585a6a62574e3254577042643031444f58706b62574e705355686162474e75546e42694d6a51355357704664553154535374446155466e53554e425a306c445157644a5130466e53554e425a306c445157644a5130466e55456453624670755453744a5157396e53554e425a306c445157644a5130466e53554e425a306c445157644a5130466e53554e425a306c445154686952327831576c64476556497a536d686152327873596d35525a32465855546c4a626b347a5446646b65566c58556e4261567a557753576c434e4531554d476c4e51306c6e5a55524a4f556c7152576c4a5347743455464e4a65456c70516a564e616a427054554e4a4b304e705157644a5130466e53554e425a306c445157644a5130466e53554e425a306c445157644a5130466e53554e425a306c445154686a4d314a3259304e43634670454d476c6a4d314a325930524661556c49546a42694d304630575449356332497a53546c4a626b707557573146623031715554524d513046345456526a63306c455654464d5130463453314e4a5a324979576d316a4d6c597755464e4a6430705453537451517a6c365a4563356431426e6232644a5130466e53554e425a306c445157644a5130466e53554e425a306c445157644a5130466e53554e425a306c445157645153453477596a4e425a32465855546c4a626b3477596a4e4265556c70516e706b527a6c335446644f646d4a484f586c5155307035576a4a4b614574455354464e5533646e5456525a4e4578445158704e5533646e54564e7261556c484f573161626b35735a455177615531555158644b55306b7255454d35656d52484f5864515a32396e53554e425a306c445157644a5130466e53554e425a306c445157644a5130466e53554e425a306c445154684d4d6e6877596d315761474e725a486c5a56314a77576c63314d46426e6232644a5130466e53554e425a306c445157644a5130466e53554e425a306c445157644a52486432576b645762574e364e45744a5130466e53554e425a306c445157644a5130466e53554e425a306c456548645a57464a765355646163474a48647a6c4a626c5a35596b4e6e616d4d7a593352614d30706f576b647362474a755558424a61554a7255464e4b546b31715758564e6158643054577072645535465458704f517a523454454d77655535444e444a4d524646335447706a6330785552544a4d616c567a546b52426455355464335250517a5178555870526430787154584e4d56454631546c4e33656b31354e486c4d52474e3154586c33655539446433684f615452345558704a6555787161334e4e616c463154314e33654539544e44464d524530775447706a633031555458564f55336436546d6b304e5646365933564f5133643654314d30654578444d48684d616c467a5458704e6455353564335250517a51305445524a4e4578716245524d5645557954477046633031715558564e55336430545770466455395464336c4e517a523454454d77655535354e444e4d5245557755586b77656b31354e44464d5247647a5446524e4e55787154584e4e5133643054587072645531706433525052553130545870726330785552544a4d517a423654576b304e5578444d486c4e6554513154454d77655535544e44424d517a423554304d304e4646354d48684f6554513154454d77656b31354e444a4d517a413054477072633078555454464d616b317a54554d30654578444d48704f557a517755587072645531706433524e656c5631546c4e33654539444e48704d517a4236546b4d306545784553544a4d616b6c7a5446524a4e557871556d464a6155497a595664534d4746454d476c4e56454633536c4e4a5a324648566e42614d6d677755464e4a654531455157784a615549775932314764574d79576e5a6a625441355357355365566c584e58706952305977576c4e6e4d5531445154464e513274705355684f4d4756586547785155306f775932314764574d7962444268567a6c3154326c4361474a486432644e517a523659336c4362466c59546d784a52454a3654336c4a5a324d7a556e6c694d6e52735446686b63467049556d395155306c3353576f304f45777a516d686b5232637251326c425a306c445157644a5130466e53554e425a306c4451576451517a6c365a47316a4b79494b66513d3da2646970667358221220e354e46600a969838186b3b7dcde7c3d2da60cf554d558a92f3224dcde68e74764736f6c634300080400333c73766720786d6c6e733d27687474703a2f2f7777772e77332e6f72672f323030302f73766727207072657365727665417370656374526174696f3d27784d696e594d696e206d656574272076696577426f783d273020302033353020333530273e3c7374796c653e2e62617365207b2066696c6c3a2077686974653b20666f6e742d66616d696c793a2073657269663b20666f6e742d73697a653a20323470783b207d3c2f7374796c653e3c726563742077696474683d273130302527206865696768743d2731303025272066696c6c3d27626c61636b27202f3e3c7465787420783d273530252720793d273530252720636c6173733d27626173652720646f6d696e616e742d626173656c696e653d276d6964646c652720746578742d616e63686f723d276d6964646c65273e",
    "linkReferences": {},
    "deployedLinkReferences": {}
}